{
    "_format": "hh-sol-artifact-1",
    "contractName": "Gacert",
    "sourceName": "contracts/Gacert.sol",
    "abi": [
        {
            "inputs": [],
            "stateMutability": "nonpayable",
            "type": "constructor"
        },
        {
            "inputs": [
                {
                    "internalType": "uint256",
                    "name": "id",
                    "type": "uint256"
                },
                {
                    "internalType": "address",
                    "name": "_approver",
                    "type": "address"
                }
            ],
            "name": "applyCert",
            "outputs": [],
            "stateMutability": "nonpayable",
            "type": "function"
        },
        {
            "inputs": [
                {
                    "internalType": "uint256",
                    "name": "id",
                    "type": "uint256"
                }
            ],
            "name": "approveCert",
            "outputs": [],
            "stateMutability": "nonpayable",
            "type": "function"
        },
        {
            "inputs": [
                {
                    "internalType": "uint256",
                    "name": "",
                    "type": "uint256"
                }
            ],
            "name": "certificates",
            "outputs": [
                {
                    "internalType": "address",
                    "name": "applier",
                    "type": "address"
                },
                {
                    "internalType": "address",
                    "name": "approver",
                    "type": "address"
                },
                {
                    "internalType": "bool",
                    "name": "isApproved",
                    "type": "bool"
                }
            ],
            "stateMutability": "view",
            "type": "function"
        },
        {
            "inputs": [
                {
                    "internalType": "uint256",
                    "name": "",
                    "type": "uint256"
                }
            ],
            "name": "idToCertificate",
            "outputs": [
                {
                    "internalType": "address",
                    "name": "applier",
                    "type": "address"
                },
                {
                    "internalType": "address",
                    "name": "approver",
                    "type": "address"
                },
                {
                    "internalType": "bool",
                    "name": "isApproved",
                    "type": "bool"
                }
            ],
            "stateMutability": "view",
            "type": "function"
        }
    ],
    "bytecode": "0x608060405234801561001057600080fd5b506106c3806100206000396000f3fe608060405234801561001057600080fd5b506004361061004c5760003560e01c80632ccee2321461005157806332a51de614610083578063663b3e221461009f578063a545158b146100d1575b600080fd5b61006b600480360381019061006691906104e4565b6100ed565b60405161007a9392919061056d565b60405180910390f35b61009d600480360381019061009891906105d0565b610164565b005b6100b960048036038101906100b491906104e4565b610358565b6040516100c89392919061056d565b60405180910390f35b6100eb60048036038101906100e691906104e4565b6103df565b005b60016020528060005260406000206000915090508060000160009054906101000a900473ffffffffffffffffffffffffffffffffffffffff16908060010160009054906101000a900473ffffffffffffffffffffffffffffffffffffffff16908060010160149054906101000a900460ff16905083565b600060405180606001604052803373ffffffffffffffffffffffffffffffffffffffff1681526020018373ffffffffffffffffffffffffffffffffffffffff168152602001600015158152509050806001600085815260200190815260200160002060008201518160000160006101000a81548173ffffffffffffffffffffffffffffffffffffffff021916908373ffffffffffffffffffffffffffffffffffffffff16021790555060208201518160010160006101000a81548173ffffffffffffffffffffffffffffffffffffffff021916908373ffffffffffffffffffffffffffffffffffffffff16021790555060408201518160010160146101000a81548160ff021916908315150217905550905050600081908060018154018082558091505060019003906000526020600020906002020160009091909190915060008201518160000160006101000a81548173ffffffffffffffffffffffffffffffffffffffff021916908373ffffffffffffffffffffffffffffffffffffffff16021790555060208201518160010160006101000a81548173ffffffffffffffffffffffffffffffffffffffff021916908373ffffffffffffffffffffffffffffffffffffffff16021790555060408201518160010160146101000a81548160ff0219169083151502179055505050505050565b6000818154811061036857600080fd5b90600052602060002090600202016000915090508060000160009054906101000a900473ffffffffffffffffffffffffffffffffffffffff16908060010160009054906101000a900473ffffffffffffffffffffffffffffffffffffffff16908060010160149054906101000a900460ff16905083565b60006001600083815260200190815260200160002090503373ffffffffffffffffffffffffffffffffffffffff168160010160009054906101000a900473ffffffffffffffffffffffffffffffffffffffff1673ffffffffffffffffffffffffffffffffffffffff1614610488576040517f08c379a000000000000000000000000000000000000000000000000000000000815260040161047f9061066d565b60405180910390fd5b60018160010160146101000a81548160ff0219169083151502179055505050565b600080fd5b6000819050919050565b6104c1816104ae565b81146104cc57600080fd5b50565b6000813590506104de816104b8565b92915050565b6000602082840312156104fa576104f96104a9565b5b6000610508848285016104cf565b91505092915050565b600073ffffffffffffffffffffffffffffffffffffffff82169050919050565b600061053c82610511565b9050919050565b61054c81610531565b82525050565b60008115159050919050565b61056781610552565b82525050565b60006060820190506105826000830186610543565b61058f6020830185610543565b61059c604083018461055e565b949350505050565b6105ad81610531565b81146105b857600080fd5b50565b6000813590506105ca816105a4565b92915050565b600080604083850312156105e7576105e66104a9565b5b60006105f5858286016104cf565b9250506020610606858286016105bb565b9150509250929050565b600082825260208201905092915050565b7f596f7520617265206e6f742074686520617070726f7665720000000000000000600082015250565b6000610657601883610610565b915061066282610621565b602082019050919050565b600060208201905081810360008301526106868161064a565b905091905056fea26469706673582212209e69f82298907f23dcf994bc975f24fdea1d9edb5a0b0e756490d21930e3e29064736f6c63430008090033",
    "linkReferences": {},
    "deployedLinkReferences": {}
}