{
    "_format": "hh-sol-artifact-1",
    "contractName": "Gacert",
    "sourceName": "contracts/Gacert.sol",
    "abi": [
        {
            "inputs": [],
            "stateMutability": "nonpayable",
            "type": "constructor"
        },
        {
            "inputs": [
                {
                    "internalType": "uint256",
                    "name": "id",
                    "type": "uint256"
                },
                {
                    "internalType": "address",
                    "name": "_approver",
                    "type": "address"
                },
                {
                    "internalType": "string",
                    "name": "_dataHash",
                    "type": "string"
                }
            ],
            "name": "applyCert",
            "outputs": [],
            "stateMutability": "nonpayable",
            "type": "function"
        },
        {
            "inputs": [
                {
                    "internalType": "uint256",
                    "name": "id",
                    "type": "uint256"
                },
                {
                    "internalType": "string",
                    "name": "_dataHash",
                    "type": "string"
                }
            ],
            "name": "approveCert",
            "outputs": [],
            "stateMutability": "nonpayable",
            "type": "function"
        },
        {
            "inputs": [
                {
                    "internalType": "uint256",
                    "name": "",
                    "type": "uint256"
                }
            ],
            "name": "certificates",
            "outputs": [
                {
                    "internalType": "address",
                    "name": "applier",
                    "type": "address"
                },
                {
                    "internalType": "address",
                    "name": "approver",
                    "type": "address"
                },
                {
                    "internalType": "string",
                    "name": "hash",
                    "type": "string"
                },
                {
                    "internalType": "bool",
                    "name": "isApproved",
                    "type": "bool"
                }
            ],
            "stateMutability": "view",
            "type": "function"
        },
        {
            "inputs": [
                {
                    "internalType": "uint256",
                    "name": "",
                    "type": "uint256"
                }
            ],
            "name": "idToCertificate",
            "outputs": [
                {
                    "internalType": "address",
                    "name": "applier",
                    "type": "address"
                },
                {
                    "internalType": "address",
                    "name": "approver",
                    "type": "address"
                },
                {
                    "internalType": "string",
                    "name": "hash",
                    "type": "string"
                },
                {
                    "internalType": "bool",
                    "name": "isApproved",
                    "type": "bool"
                }
            ],
            "stateMutability": "view",
            "type": "function"
        }
    ],
    "bytecode": "0x608060405234801561001057600080fd5b50610dab806100206000396000f3fe608060405234801561001057600080fd5b506004361061004c5760003560e01c80632ccee232146100515780633378527e14610084578063663b3e22146100a05780639517a2e9146100d3575b600080fd5b61006b600480360381019061006691906107a4565b6100ef565b60405161007b94939291906108c6565b60405180910390f35b61009e60048036038101906100999190610a47565b6101f4565b005b6100ba60048036038101906100b591906107a4565b61036d565b6040516100ca94939291906108c6565b60405180910390f35b6100ed60048036038101906100e89190610acf565b610482565b005b60016020528060005260406000206000915090508060000160009054906101000a900473ffffffffffffffffffffffffffffffffffffffff16908060010160009054906101000a900473ffffffffffffffffffffffffffffffffffffffff169080600201805461015e90610b6d565b80601f016020809104026020016040519081016040528092919081815260200182805461018a90610b6d565b80156101d75780601f106101ac576101008083540402835291602001916101d7565b820191906000526020600020905b8154815290600101906020018083116101ba57829003601f168201915b5050505050908060030160009054906101000a900460ff16905084565b3373ffffffffffffffffffffffffffffffffffffffff166001600084815260200190815260200160002060010160009054906101000a900473ffffffffffffffffffffffffffffffffffffffff1673ffffffffffffffffffffffffffffffffffffffff1614610298576040517f08c379a000000000000000000000000000000000000000000000000000000000815260040161028f90610beb565b60405180910390fd5b806040516020016102a99190610c47565b60405160208183030381529060405280519060200120600160008481526020019081526020016000206002016040516020016102e59190610cf2565b604051602081830303815290604052805190602001201461033b576040517f08c379a000000000000000000000000000000000000000000000000000000000815260040161033290610d55565b60405180910390fd5b600180600084815260200190815260200160002060030160006101000a81548160ff0219169083151502179055505050565b6000818154811061037d57600080fd5b90600052602060002090600402016000915090508060000160009054906101000a900473ffffffffffffffffffffffffffffffffffffffff16908060010160009054906101000a900473ffffffffffffffffffffffffffffffffffffffff16908060020180546103ec90610b6d565b80601f016020809104026020016040519081016040528092919081815260200182805461041890610b6d565b80156104655780601f1061043a57610100808354040283529160200191610465565b820191906000526020600020905b81548152906001019060200180831161044857829003601f168201915b5050505050908060030160009054906101000a900460ff16905084565b600060405180608001604052803373ffffffffffffffffffffffffffffffffffffffff1681526020018473ffffffffffffffffffffffffffffffffffffffff168152602001838152602001600015158152509050806001600086815260200190815260200160002060008201518160000160006101000a81548173ffffffffffffffffffffffffffffffffffffffff021916908373ffffffffffffffffffffffffffffffffffffffff16021790555060208201518160010160006101000a81548173ffffffffffffffffffffffffffffffffffffffff021916908373ffffffffffffffffffffffffffffffffffffffff16021790555060408201518160020190805190602001906105949291906106b7565b5060608201518160030160006101000a81548160ff021916908315150217905550905050600081908060018154018082558091505060019003906000526020600020906004020160009091909190915060008201518160000160006101000a81548173ffffffffffffffffffffffffffffffffffffffff021916908373ffffffffffffffffffffffffffffffffffffffff16021790555060208201518160010160006101000a81548173ffffffffffffffffffffffffffffffffffffffff021916908373ffffffffffffffffffffffffffffffffffffffff160217905550604082015181600201908051906020019061068e9291906106b7565b5060608201518160030160006101000a81548160ff021916908315150217905550505050505050565b8280546106c390610b6d565b90600052602060002090601f0160209004810192826106e5576000855561072c565b82601f106106fe57805160ff191683800117855561072c565b8280016001018555821561072c579182015b8281111561072b578251825591602001919060010190610710565b5b509050610739919061073d565b5090565b5b8082111561075657600081600090555060010161073e565b5090565b6000604051905090565b600080fd5b600080fd5b6000819050919050565b6107818161076e565b811461078c57600080fd5b50565b60008135905061079e81610778565b92915050565b6000602082840312156107ba576107b9610764565b5b60006107c88482850161078f565b91505092915050565b600073ffffffffffffffffffffffffffffffffffffffff82169050919050565b60006107fc826107d1565b9050919050565b61080c816107f1565b82525050565b600081519050919050565b600082825260208201905092915050565b60005b8381101561084c578082015181840152602081019050610831565b8381111561085b576000848401525b50505050565b6000601f19601f8301169050919050565b600061087d82610812565b610887818561081d565b935061089781856020860161082e565b6108a081610861565b840191505092915050565b60008115159050919050565b6108c0816108ab565b82525050565b60006080820190506108db6000830187610803565b6108e86020830186610803565b81810360408301526108fa8185610872565b905061090960608301846108b7565b95945050505050565b600080fd5b600080fd5b7f4e487b7100000000000000000000000000000000000000000000000000000000600052604160045260246000fd5b61095482610861565b810181811067ffffffffffffffff821117156109735761097261091c565b5b80604052505050565b600061098661075a565b9050610992828261094b565b919050565b600067ffffffffffffffff8211156109b2576109b161091c565b5b6109bb82610861565b9050602081019050919050565b82818337600083830152505050565b60006109ea6109e584610997565b61097c565b905082815260208101848484011115610a0657610a05610917565b5b610a118482856109c8565b509392505050565b600082601f830112610a2e57610a2d610912565b5b8135610a3e8482602086016109d7565b91505092915050565b60008060408385031215610a5e57610a5d610764565b5b6000610a6c8582860161078f565b925050602083013567ffffffffffffffff811115610a8d57610a8c610769565b5b610a9985828601610a19565b9150509250929050565b610aac816107f1565b8114610ab757600080fd5b50565b600081359050610ac981610aa3565b92915050565b600080600060608486031215610ae857610ae7610764565b5b6000610af68682870161078f565b9350506020610b0786828701610aba565b925050604084013567ffffffffffffffff811115610b2857610b27610769565b5b610b3486828701610a19565b9150509250925092565b7f4e487b7100000000000000000000000000000000000000000000000000000000600052602260045260246000fd5b60006002820490506001821680610b8557607f821691505b60208210811415610b9957610b98610b3e565b5b50919050565b7f596f7520617265206e6f742074686520617070726f7665720000000000000000600082015250565b6000610bd560188361081d565b9150610be082610b9f565b602082019050919050565b60006020820190508181036000830152610c0481610bc8565b9050919050565b600081905092915050565b6000610c2182610812565b610c2b8185610c0b565b9350610c3b81856020860161082e565b80840191505092915050565b6000610c538284610c16565b915081905092915050565b60008190508160005260206000209050919050565b60008154610c8081610b6d565b610c8a8186610c0b565b94506001821660008114610ca55760018114610cb657610ce9565b60ff19831686528186019350610ce9565b610cbf85610c5e565b60005b83811015610ce157815481890152600182019150602081019050610cc2565b838801955050505b50505092915050565b6000610cfe8284610c73565b915081905092915050565b7f596f757220646174612068617368206973206e6f74207468652073616d652100600082015250565b6000610d3f601f8361081d565b9150610d4a82610d09565b602082019050919050565b60006020820190508181036000830152610d6e81610d32565b905091905056fea2646970667358221220e33dfcec0b77573005ee700cc89b65daddb250c2a9c3dff266735a315ddb433e64736f6c63430008090033",
    "linkReferences": {},
    "deployedLinkReferences": {}
}